{
  "contractName": "Agent",
  "abi": [
    {
      "constant": true,
      "inputs": [],
      "name": "name",
      "outputs": [
        {
          "name": "",
          "type": "string"
        }
      ],
      "payable": false,
      "stateMutability": "view",
      "type": "function"
    },
    {
      "constant": true,
      "inputs": [],
      "name": "myAddress",
      "outputs": [
        {
          "name": "",
          "type": "address"
        }
      ],
      "payable": false,
      "stateMutability": "view",
      "type": "function"
    },
    {
      "constant": true,
      "inputs": [],
      "name": "aType",
      "outputs": [
        {
          "name": "",
          "type": "string"
        }
      ],
      "payable": false,
      "stateMutability": "view",
      "type": "function"
    },
    {
      "constant": true,
      "inputs": [],
      "name": "mHistory",
      "outputs": [
        {
          "name": "",
          "type": "address"
        }
      ],
      "payable": false,
      "stateMutability": "view",
      "type": "function"
    },
    {
      "constant": true,
      "inputs": [],
      "name": "did",
      "outputs": [
        {
          "name": "",
          "type": "string"
        }
      ],
      "payable": false,
      "stateMutability": "view",
      "type": "function"
    },
    {
      "constant": true,
      "inputs": [],
      "name": "uid",
      "outputs": [
        {
          "name": "",
          "type": "string"
        }
      ],
      "payable": false,
      "stateMutability": "view",
      "type": "function"
    },
    {
      "inputs": [
        {
          "name": "ma",
          "type": "address"
        },
        {
          "name": "nm",
          "type": "string"
        },
        {
          "name": "ui",
          "type": "string"
        },
        {
          "name": "di",
          "type": "string"
        },
        {
          "name": "tp",
          "type": "string"
        }
      ],
      "payable": false,
      "stateMutability": "nonpayable",
      "type": "constructor"
    }
  ],
  "bytecode": "0x608060405234801561001057600080fd5b5060405162001a0338038062001a03833981018060405260a081101561003557600080fd5b8101908080519060200190929190805164010000000081111561005757600080fd5b8281019050602081018481111561006d57600080fd5b815185600182028301116401000000008211171561008a57600080fd5b505092919060200180516401000000008111156100a657600080fd5b828101905060208101848111156100bc57600080fd5b81518560018202830111640100000000821117156100d957600080fd5b505092919060200180516401000000008111156100f557600080fd5b8281019050602081018481111561010b57600080fd5b815185600182028301116401000000008211171561012857600080fd5b5050929190602001805164010000000081111561014457600080fd5b8281019050602081018481111561015a57600080fd5b815185600182028301116401000000008211171561017757600080fd5b50509291905050506101876102c9565b808060200180602001806020018481038452600081526020016020018481038352600081526020016020018481038252600081526020016020019350505050604051809103906000f0801580156101e2573d6000803e3d6000fd5b50600560006101000a81548173ffffffffffffffffffffffffffffffffffffffff021916908373ffffffffffffffffffffffffffffffffffffffff160217905550846000806101000a81548173ffffffffffffffffffffffffffffffffffffffff021916908373ffffffffffffffffffffffffffffffffffffffff16021790555083600190805190602001906102799291906102da565b5082600290805190602001906102909291906102da565b5081600390805190602001906102a79291906102da565b5080600490805190602001906102be9291906102da565b50505050505061037f565b60405161101a80620009e983390190565b828054600181600116156101000203166002900490600052602060002090601f016020900481019282601f1061031b57805160ff1916838001178555610349565b82800160010185558215610349579182015b8281111561034857825182559160200191906001019061032d565b5b509050610356919061035a565b5090565b61037c91905b80821115610378576000816000905550600101610360565b5090565b90565b61065a806200038f6000396000f3fe608060405260043610610078576000357c0100000000000000000000000000000000000000000000000000000000900463ffffffff16806306fdde031461007d57806326b85ee11461010d5780634d4405a91461016457806368c41157146101f4578063e6fcc84b1461024b578063f514ce36146102db575b600080fd5b34801561008957600080fd5b5061009261036b565b6040518080602001828103825283818151815260200191508051906020019080838360005b838110156100d25780820151818401526020810190506100b7565b50505050905090810190601f1680156100ff5780820380516001836020036101000a031916815260200191505b509250505060405180910390f35b34801561011957600080fd5b50610122610409565b604051808273ffffffffffffffffffffffffffffffffffffffff1673ffffffffffffffffffffffffffffffffffffffff16815260200191505060405180910390f35b34801561017057600080fd5b5061017961042e565b6040518080602001828103825283818151815260200191508051906020019080838360005b838110156101b957808201518184015260208101905061019e565b50505050905090810190601f1680156101e65780820380516001836020036101000a031916815260200191505b509250505060405180910390f35b34801561020057600080fd5b506102096104cc565b604051808273ffffffffffffffffffffffffffffffffffffffff1673ffffffffffffffffffffffffffffffffffffffff16815260200191505060405180910390f35b34801561025757600080fd5b506102606104f2565b6040518080602001828103825283818151815260200191508051906020019080838360005b838110156102a0578082015181840152602081019050610285565b50505050905090810190601f1680156102cd5780820380516001836020036101000a031916815260200191505b509250505060405180910390f35b3480156102e757600080fd5b506102f0610590565b6040518080602001828103825283818151815260200191508051906020019080838360005b83811015610330578082015181840152602081019050610315565b50505050905090810190601f16801561035d5780820380516001836020036101000a031916815260200191505b509250505060405180910390f35b60018054600181600116156101000203166002900480601f0160208091040260200160405190810160405280929190818152602001828054600181600116156101000203166002900480156104015780601f106103d657610100808354040283529160200191610401565b820191906000526020600020905b8154815290600101906020018083116103e457829003601f168201915b505050505081565b6000809054906101000a900473ffffffffffffffffffffffffffffffffffffffff1681565b60048054600181600116156101000203166002900480601f0160208091040260200160405190810160405280929190818152602001828054600181600116156101000203166002900480156104c45780601f10610499576101008083540402835291602001916104c4565b820191906000526020600020905b8154815290600101906020018083116104a757829003601f168201915b505050505081565b600560009054906101000a900473ffffffffffffffffffffffffffffffffffffffff1681565b60038054600181600116156101000203166002900480601f0160208091040260200160405190810160405280929190818152602001828054600181600116156101000203166002900480156105885780601f1061055d57610100808354040283529160200191610588565b820191906000526020600020905b81548152906001019060200180831161056b57829003601f168201915b505050505081565b60028054600181600116156101000203166002900480601f0160208091040260200160405190810160405280929190818152602001828054600181600116156101000203166002900480156106265780601f106105fb57610100808354040283529160200191610626565b820191906000526020600020905b81548152906001019060200180831161060957829003601f168201915b50505050508156fea165627a7a7230582039508a8c73a09c61a1fcdcb5b59d6761cf60ebc164d0dfc40e6131c7eef276ab002960806040523480156200001157600080fd5b506040516200101a3803806200101a833981018060405260608110156200003757600080fd5b8101908080516401000000008111156200005057600080fd5b828101905060208101848111156200006757600080fd5b81518560018202830111640100000000821117156200008557600080fd5b50509291906020018051640100000000811115620000a257600080fd5b82810190506020810184811115620000b957600080fd5b8151856001820283011164010000000082111715620000d757600080fd5b50509291906020018051640100000000811115620000f457600080fd5b828101905060208101848111156200010b57600080fd5b81518560018202830111640100000000821117156200012957600080fd5b505092919050505082600090805190602001906200014992919062000185565b5081600190805190602001906200016292919062000185565b5080600290805190602001906200017b92919062000185565b5050505062000234565b828054600181600116156101000203166002900490600052602060002090601f016020900481019282601f10620001c857805160ff1916838001178555620001f9565b82800160010185558215620001f9579182015b82811115620001f8578251825591602001919060010190620001db565b5b5090506200020891906200020c565b5090565b6200023191905b808211156200022d57600081600090555060010162000213565b5090565b90565b610dd680620002446000396000f3fe608060405260043610610083576000357c0100000000000000000000000000000000000000000000000000000000900463ffffffff16806306fdde03146100885780631073a13714610118578063747f338014610143578063adcff184146101d3578063bcd6e87e14610372578063ec002d6a146105a8578063f629ad30146106c8575b600080fd5b34801561009457600080fd5b5061009d610758565b6040518080602001828103825283818151815260200191508051906020019080838360005b838110156100dd5780820151818401526020810190506100c2565b50505050905090810190601f16801561010a5780820380516001836020036101000a031916815260200191505b509250505060405180910390f35b34801561012457600080fd5b5061012d6107f6565b6040518082815260200191505060405180910390f35b34801561014f57600080fd5b506101586107fc565b6040518080602001828103825283818151815260200191508051906020019080838360005b8381101561019857808201518184015260208101905061017d565b50505050905090810190601f1680156101c55780820380516001836020036101000a031916815260200191505b509250505060405180910390f35b3480156101df57600080fd5b50610370600480360360808110156101f657600080fd5b810190808035906020019064010000000081111561021357600080fd5b82018360208201111561022557600080fd5b8035906020019184600183028401116401000000008311171561024757600080fd5b91908080601f016020809104026020016040519081016040528093929190818152602001838380828437600081840152601f19601f820116905080830192505050505050509192919290803590602001906401000000008111156102aa57600080fd5b8201836020820111156102bc57600080fd5b803590602001918460018302840111640100000000831117156102de57600080fd5b91908080601f016020809104026020016040519081016040528093929190818152602001838380828437600081840152601f19601f820116905080830192505050505050509192919290803573ffffffffffffffffffffffffffffffffffffffff169060200190929190803573ffffffffffffffffffffffffffffffffffffffff16906020019092919050505061089a565b005b34801561037e57600080fd5b506105a6600480360360a081101561039557600080fd5b81019080803590602001906401000000008111156103b257600080fd5b8201836020820111156103c457600080fd5b803590602001918460018302840111640100000000831117156103e657600080fd5b91908080601f016020809104026020016040519081016040528093929190818152602001838380828437600081840152601f19601f8201169050808301925050505050505091929192908035906020019064010000000081111561044957600080fd5b82018360208201111561045b57600080fd5b8035906020019184600183028401116401000000008311171561047d57600080fd5b91908080601f016020809104026020016040519081016040528093929190818152602001838380828437600081840152601f19601f820116905080830192505050505050509192919290803590602001906401000000008111156104e057600080fd5b8201836020820111156104f257600080fd5b8035906020019184600183028401116401000000008311171561051457600080fd5b91908080601f016020809104026020016040519081016040528093929190818152602001838380828437600081840152601f19601f820116905080830192505050505050509192919290803573ffffffffffffffffffffffffffffffffffffffff169060200190929190803573ffffffffffffffffffffffffffffffffffffffff1690602001909291905050506109b0565b005b3480156105b457600080fd5b506105e1600480360360208110156105cb57600080fd5b8101908080359060200190929190505050610a93565b604051808060200180602001838103835285818151815260200191508051906020019080838360005b8381101561062557808201518184015260208101905061060a565b50505050905090810190601f1680156106525780820380516001836020036101000a031916815260200191505b50838103825284818151815260200191508051906020019080838360005b8381101561068b578082015181840152602081019050610670565b50505050905090810190601f1680156106b85780820380516001836020036101000a031916815260200191505b5094505050505060405180910390f35b3480156106d457600080fd5b506106dd610be7565b6040518080602001828103825283818151815260200191508051906020019080838360005b8381101561071d578082015181840152602081019050610702565b50505050905090810190601f16801561074a5780820380516001836020036101000a031916815260200191505b509250505060405180910390f35b60008054600181600116156101000203166002900480601f0160208091040260200160405190810160405280929190818152602001828054600181600116156101000203166002900480156107ee5780601f106107c3576101008083540402835291602001916107ee565b820191906000526020600020905b8154815290600101906020018083116107d157829003601f168201915b505050505081565b60045481565b60028054600181600116156101000203166002900480601f0160208091040260200160405190810160405280929190818152602001828054600181600116156101000203166002900480156108925780601f1061086757610100808354040283529160200191610892565b820191906000526020600020905b81548152906001019060200180831161087557829003601f168201915b505050505081565b60046000815480929190600101919050555060408051908101604052808581526020018481525060036000600454815260200190815260200160002060008201518160000190805190602001906108f2929190610c85565b50602082015181600101908051906020019061090f929190610c85565b509050507f1a600d72ea565d8497f59d3b9158d387d68ffcf98ca54eacf4d1c01df71fec788282604051808373ffffffffffffffffffffffffffffffffffffffff1673ffffffffffffffffffffffffffffffffffffffff1681526020018273ffffffffffffffffffffffffffffffffffffffff1673ffffffffffffffffffffffffffffffffffffffff1681526020019250505060405180910390a150505050565b84600090805190602001906109c6929190610d05565b5083600190805190602001906109dd929190610d05565b5082600290805190602001906109f4929190610d05565b507f84e0f927090bbbd6f6004647d35d177dd170934c4b36040b639c01e34bf3863a8282604051808373ffffffffffffffffffffffffffffffffffffffff1673ffffffffffffffffffffffffffffffffffffffff1681526020018273ffffffffffffffffffffffffffffffffffffffff1673ffffffffffffffffffffffffffffffffffffffff1681526020019250505060405180910390a15050505050565b6003602052806000526040600020600091509050806000018054600181600116156101000203166002900480601f016020809104026020016040519081016040528092919081815260200182805460018160011615610100020316600290048015610b3f5780601f10610b1457610100808354040283529160200191610b3f565b820191906000526020600020905b815481529060010190602001808311610b2257829003601f168201915b505050505090806001018054600181600116156101000203166002900480601f016020809104026020016040519081016040528092919081815260200182805460018160011615610100020316600290048015610bdd5780601f10610bb257610100808354040283529160200191610bdd565b820191906000526020600020905b815481529060010190602001808311610bc057829003601f168201915b5050505050905082565b60018054600181600116156101000203166002900480601f016020809104026020016040519081016040528092919081815260200182805460018160011615610100020316600290048015610c7d5780601f10610c5257610100808354040283529160200191610c7d565b820191906000526020600020905b815481529060010190602001808311610c6057829003601f168201915b505050505081565b828054600181600116156101000203166002900490600052602060002090601f016020900481019282601f10610cc657805160ff1916838001178555610cf4565b82800160010185558215610cf4579182015b82811115610cf3578251825591602001919060010190610cd8565b5b509050610d019190610d85565b5090565b828054600181600116156101000203166002900490600052602060002090601f016020900481019282601f10610d4657805160ff1916838001178555610d74565b82800160010185558215610d74579182015b82811115610d73578251825591602001919060010190610d58565b5b509050610d819190610d85565b5090565b610da791905b80821115610da3576000816000905550600101610d8b565b5090565b9056fea165627a7a72305820a0212c203dfedbd8a45c3225ee1c1554d4bb04935ebde040fbdf2fc8d924b8050029",
  "source": "pragma solidity ^0.5.0;\r\nimport './MedicalHistory.sol';\r\n\r\ncontract Agent {\r\n\r\n\r\n    address public myAddress;\r\n    string public name;\r\n    string public uid;\r\n    string public did;\r\n    string public aType;\r\n    MedicalHistory public mHistory;\r\n\r\n    constructor(address ma, string memory nm,string memory ui, string memory di,string memory tp) public{\r\n        mHistory = new MedicalHistory({nm:'',ha:'',pn:''});\r\n        myAddress = ma;\r\n        name = nm;\r\n        uid = ui;\r\n        did = di;\r\n        aType = tp;\r\n    }\r\n\r\n}",
  "sourcePath": "C:\\Users\\Giordy\\Desktop\\PF\\contracts\\Agent.sol",
  "compiler": {
    "name": "solc",
    "version": "0.5.0+commit.1d4f565a.Emscripten.clang"
  },
  "schemaVersion": "3.0.5",
  "updatedAt": "2019-05-10T20:55:05.203Z",
  "devdoc": {
    "methods": {}
  },
  "userdoc": {
    "methods": {}
  }
}