{
  "contractName": "Platform",
  "abi": [
    {
      "constant": true,
      "inputs": [
        {
          "name": "",
          "type": "uint256"
        }
      ],
      "name": "agents",
      "outputs": [
        {
          "name": "",
          "type": "address"
        }
      ],
      "payable": false,
      "stateMutability": "view",
      "type": "function"
    },
    {
      "constant": true,
      "inputs": [
        {
          "name": "",
          "type": "address"
        }
      ],
      "name": "registeredAgents",
      "outputs": [
        {
          "name": "",
          "type": "uint256"
        }
      ],
      "payable": false,
      "stateMutability": "view",
      "type": "function"
    },
    {
      "constant": true,
      "inputs": [
        {
          "name": "",
          "type": "uint256"
        }
      ],
      "name": "relationships",
      "outputs": [
        {
          "name": "patient",
          "type": "address"
        },
        {
          "name": "other",
          "type": "address"
        },
        {
          "name": "access",
          "type": "string"
        },
        {
          "name": "rType",
          "type": "string"
        },
        {
          "name": "active",
          "type": "bool"
        }
      ],
      "payable": false,
      "stateMutability": "view",
      "type": "function"
    },
    {
      "constant": true,
      "inputs": [],
      "name": "relationshipsCount",
      "outputs": [
        {
          "name": "",
          "type": "uint256"
        }
      ],
      "payable": false,
      "stateMutability": "view",
      "type": "function"
    },
    {
      "constant": true,
      "inputs": [],
      "name": "agentsCount",
      "outputs": [
        {
          "name": "",
          "type": "uint256"
        }
      ],
      "payable": false,
      "stateMutability": "view",
      "type": "function"
    },
    {
      "inputs": [],
      "payable": false,
      "stateMutability": "nonpayable",
      "type": "constructor"
    },
    {
      "anonymous": false,
      "inputs": [
        {
          "indexed": false,
          "name": "agentAddress",
          "type": "address"
        }
      ],
      "name": "registerEvent",
      "type": "event"
    },
    {
      "anonymous": false,
      "inputs": [
        {
          "indexed": false,
          "name": "i",
          "type": "uint256"
        },
        {
          "indexed": false,
          "name": "access",
          "type": "string"
        }
      ],
      "name": "accessEvent",
      "type": "event"
    },
    {
      "anonymous": false,
      "inputs": [
        {
          "indexed": false,
          "name": "ow",
          "type": "address"
        },
        {
          "indexed": false,
          "name": "ot",
          "type": "address"
        }
      ],
      "name": "relationshipEvent",
      "type": "event"
    },
    {
      "anonymous": false,
      "inputs": [
        {
          "indexed": false,
          "name": "i",
          "type": "uint256"
        },
        {
          "indexed": false,
          "name": "active",
          "type": "bool"
        }
      ],
      "name": "activeEvent",
      "type": "event"
    },
    {
      "anonymous": false,
      "inputs": [
        {
          "indexed": false,
          "name": "ow",
          "type": "address"
        },
        {
          "indexed": false,
          "name": "ot1",
          "type": "address"
        },
        {
          "indexed": false,
          "name": "ot2",
          "type": "address"
        }
      ],
      "name": "otherEvent",
      "type": "event"
    },
    {
      "anonymous": false,
      "inputs": [
        {
          "indexed": false,
          "name": "ow1",
          "type": "address"
        },
        {
          "indexed": false,
          "name": "ot1",
          "type": "address"
        },
        {
          "indexed": false,
          "name": "ow2",
          "type": "address"
        },
        {
          "indexed": false,
          "name": "ot2",
          "type": "address"
        }
      ],
      "name": "bothEvent",
      "type": "event"
    },
    {
      "anonymous": false,
      "inputs": [
        {
          "indexed": false,
          "name": "ow",
          "type": "address"
        },
        {
          "indexed": false,
          "name": "ot",
          "type": "address"
        }
      ],
      "name": "oneEvent",
      "type": "event"
    },
    {
      "constant": false,
      "inputs": [
        {
          "name": "name",
          "type": "string"
        },
        {
          "name": "uid",
          "type": "string"
        },
        {
          "name": "did",
          "type": "string"
        },
        {
          "name": "tipo",
          "type": "string"
        }
      ],
      "name": "registerAgent",
      "outputs": [],
      "payable": false,
      "stateMutability": "nonpayable",
      "type": "function"
    },
    {
      "constant": true,
      "inputs": [],
      "name": "getAgentIndex",
      "outputs": [
        {
          "name": "",
          "type": "uint256"
        }
      ],
      "payable": false,
      "stateMutability": "view",
      "type": "function"
    },
    {
      "constant": false,
      "inputs": [
        {
          "name": "ow",
          "type": "address"
        },
        {
          "name": "ot",
          "type": "address"
        },
        {
          "name": "acc",
          "type": "string"
        },
        {
          "name": "tp",
          "type": "string"
        },
        {
          "name": "act",
          "type": "bool"
        }
      ],
      "name": "addRelationship",
      "outputs": [],
      "payable": false,
      "stateMutability": "nonpayable",
      "type": "function"
    },
    {
      "constant": false,
      "inputs": [
        {
          "name": "i",
          "type": "uint256"
        }
      ],
      "name": "deleteRelationship",
      "outputs": [],
      "payable": false,
      "stateMutability": "nonpayable",
      "type": "function"
    },
    {
      "constant": false,
      "inputs": [
        {
          "name": "i",
          "type": "uint256"
        },
        {
          "name": "ac",
          "type": "string"
        }
      ],
      "name": "setAccess",
      "outputs": [],
      "payable": false,
      "stateMutability": "nonpayable",
      "type": "function"
    },
    {
      "constant": false,
      "inputs": [
        {
          "name": "i",
          "type": "uint256"
        },
        {
          "name": "ac",
          "type": "bool"
        }
      ],
      "name": "setActive",
      "outputs": [],
      "payable": false,
      "stateMutability": "nonpayable",
      "type": "function"
    },
    {
      "constant": false,
      "inputs": [
        {
          "name": "i",
          "type": "uint256"
        },
        {
          "name": "ad",
          "type": "address"
        }
      ],
      "name": "setOther",
      "outputs": [],
      "payable": false,
      "stateMutability": "nonpayable",
      "type": "function"
    },
    {
      "constant": false,
      "inputs": [
        {
          "name": "i",
          "type": "uint256"
        },
        {
          "name": "i2",
          "type": "uint256"
        }
      ],
      "name": "setBoth",
      "outputs": [],
      "payable": false,
      "stateMutability": "nonpayable",
      "type": "function"
    },
    {
      "constant": false,
      "inputs": [
        {
          "name": "i",
          "type": "uint256"
        }
      ],
      "name": "setOne",
      "outputs": [],
      "payable": false,
      "stateMutability": "nonpayable",
      "type": "function"
    }
  ],
  "bytecode": "0x608060405234801561001057600080fd5b5061371a806100206000396000f3fe608060405260043610620000df576000357c0100000000000000000000000000000000000000000000000000000000900463ffffffff16806331fbf4ef14620000e4578063513856c8146200012357806374ee82fc14620001a257806375694ff3146200020b57806377f2556614620004a857806392cf1ef514620004e757806394aa27181462000530578063aa5eabf114620006cb578063ca49e6ac14620006f9578063d101aa1114620008ae578063ddd7e363146200090d578063df30ae3714620009e6578063e60a955d1462000a14578063f7a341201462000a5f575b600080fd5b348015620000f157600080fd5b5062000121600480360360208110156200010a57600080fd5b810190808035906020019092919050505062000a8d565b005b3480156200013057600080fd5b5062000160600480360360208110156200014957600080fd5b810190808035906020019092919050505062000b2c565b604051808273ffffffffffffffffffffffffffffffffffffffff1673ffffffffffffffffffffffffffffffffffffffff16815260200191505060405180910390f35b348015620001af57600080fd5b50620001f560048036036020811015620001c857600080fd5b81019080803573ffffffffffffffffffffffffffffffffffffffff16906020019092919050505062000b5f565b6040518082815260200191505060405180910390f35b3480156200021857600080fd5b50620004a6600480360360808110156200023157600080fd5b81019080803590602001906401000000008111156200024f57600080fd5b8201836020820111156200026257600080fd5b803590602001918460018302840111640100000000831117156200028557600080fd5b91908080601f016020809104026020016040519081016040528093929190818152602001838380828437600081840152601f19601f82011690508083019250505050505050919291929080359060200190640100000000811115620002e957600080fd5b820183602082011115620002fc57600080fd5b803590602001918460018302840111640100000000831117156200031f57600080fd5b91908080601f016020809104026020016040519081016040528093929190818152602001838380828437600081840152601f19601f820116905080830192505050505050509192919290803590602001906401000000008111156200038357600080fd5b8201836020820111156200039657600080fd5b80359060200191846001830284011164010000000083111715620003b957600080fd5b91908080601f016020809104026020016040519081016040528093929190818152602001838380828437600081840152601f19601f820116905080830192505050505050509192919290803590602001906401000000008111156200041d57600080fd5b8201836020820111156200043057600080fd5b803590602001918460018302840111640100000000831117156200045357600080fd5b91908080601f016020809104026020016040519081016040528093929190818152602001838380828437600081840152601f19601f82011690508083019250505050505050919291929050505062000b77565b005b348015620004b557600080fd5b50620004e560048036036020811015620004ce57600080fd5b810190808035906020019092919050505062000ea9565b005b348015620004f457600080fd5b506200052e600480360360408110156200050d57600080fd5b810190808035906020019092919080359060200190929190505050620010a2565b005b3480156200053d57600080fd5b506200056d600480360360208110156200055657600080fd5b810190808035906020019092919050505062001463565b604051808673ffffffffffffffffffffffffffffffffffffffff1673ffffffffffffffffffffffffffffffffffffffff1681526020018573ffffffffffffffffffffffffffffffffffffffff1673ffffffffffffffffffffffffffffffffffffffff168152602001806020018060200184151515158152602001838103835286818151815260200191508051906020019080838360005b838110156200062157808201518184015260208101905062000604565b50505050905090810190601f1680156200064f5780820380516001836020036101000a031916815260200191505b50838103825285818151815260200191508051906020019080838360005b838110156200068a5780820151818401526020810190506200066d565b50505050905090810190601f168015620006b85780820380516001836020036101000a031916815260200191505b5097505050505050505060405180910390f35b348015620006d857600080fd5b50620006e36200161e565b6040518082815260200191505060405180910390f35b3480156200070657600080fd5b50620008ac600480360360a08110156200071f57600080fd5b81019080803573ffffffffffffffffffffffffffffffffffffffff169060200190929190803573ffffffffffffffffffffffffffffffffffffffff169060200190929190803590602001906401000000008111156200077d57600080fd5b8201836020820111156200079057600080fd5b80359060200191846001830284011164010000000083111715620007b357600080fd5b91908080601f016020809104026020016040519081016040528093929190818152602001838380828437600081840152601f19601f820116905080830192505050505050509192919290803590602001906401000000008111156200081757600080fd5b8201836020820111156200082a57600080fd5b803590602001918460018302840111640100000000831117156200084d57600080fd5b91908080601f016020809104026020016040519081016040528093929190818152602001838380828437600081840152601f19601f82011690508083019250505050505050919291929080351515906020019092919050505062001624565b005b348015620008bb57600080fd5b506200090b60048036036040811015620008d457600080fd5b8101908080359060200190929190803573ffffffffffffffffffffffffffffffffffffffff1690602001909291905050506200182e565b005b3480156200091a57600080fd5b50620009e4600480360360408110156200093357600080fd5b8101908080359060200190929190803590602001906401000000008111156200095b57600080fd5b8201836020820111156200096e57600080fd5b803590602001918460018302840111640100000000831117156200099157600080fd5b91908080601f016020809104026020016040519081016040528093929190818152602001838380828437600081840152601f19601f820116905080830192505050505050509192919290505050620019be565b005b348015620009f357600080fd5b50620009fe62001a96565b6040518082815260200191505060405180910390f35b34801562000a2157600080fd5b5062000a5d6004803603604081101562000a3a57600080fd5b810190808035906020019092919080351515906020019092919050505062001a9c565b005b34801562000a6c57600080fd5b5062000a7762001b11565b6040518082815260200191505060405180910390f35b60026000828152602001908152602001600020600080820160006101000a81549073ffffffffffffffffffffffffffffffffffffffff02191690556001820160006101000a81549073ffffffffffffffffffffffffffffffffffffffff021916905560028201600062000b01919062001b58565b60038201600062000b13919062001b58565b6004820160006101000a81549060ff0219169055505050565b60006020528060005260406000206000915054906101000a900473ffffffffffffffffffffffffffffffffffffffff1681565b60016020528060005260406000206000915090505481565b600360008154809291906001019190505550338484848462000b9862001ba4565b808673ffffffffffffffffffffffffffffffffffffffff1673ffffffffffffffffffffffffffffffffffffffff16815260200180602001806020018060200180602001858103855289818151815260200191508051906020019080838360005b8381101562000c1557808201518184015260208101905062000bf8565b50505050905090810190601f16801562000c435780820380516001836020036101000a031916815260200191505b50858103845288818151815260200191508051906020019080838360005b8381101562000c7e57808201518184015260208101905062000c61565b50505050905090810190601f16801562000cac5780820380516001836020036101000a031916815260200191505b50858103835287818151815260200191508051906020019080838360005b8381101562000ce757808201518184015260208101905062000cca565b50505050905090810190601f16801562000d155780820380516001836020036101000a031916815260200191505b50858103825286818151815260200191508051906020019080838360005b8381101562000d5057808201518184015260208101905062000d33565b50505050905090810190601f16801562000d7e5780820380516001836020036101000a031916815260200191505b509950505050505050505050604051809103906000f08015801562000da7573d6000803e3d6000fd5b50600080600354815260200190815260200160002060006101000a81548173ffffffffffffffffffffffffffffffffffffffff021916908373ffffffffffffffffffffffffffffffffffffffff160217905550600354600160003373ffffffffffffffffffffffffffffffffffffffff1673ffffffffffffffffffffffffffffffffffffffff168152602001908152602001600020819055507f60d9b769ccb69037368a6e5d5515b08014a71ed00794df5500bdf5683be488d533604051808273ffffffffffffffffffffffffffffffffffffffff1673ffffffffffffffffffffffffffffffffffffffff16815260200191505060405180910390a150505050565b6040805190810160405280600281526020017f666100000000000000000000000000000000000000000000000000000000000081525060026000838152602001908152602001600020600201908051906020019062000f0a92919062001bb5565b506040805190810160405280600281526020017f666400000000000000000000000000000000000000000000000000000000000081525060026000838152602001908152602001600020600301908051906020019062000f6c92919062001bb5565b5060016002600083815260200190815260200160002060040160006101000a81548160ff0219169083151502179055507ff4d6fc78b42270bec0d54ea5933b43882e61ffa8e10965c21c07977381f35dff6002600083815260200190815260200160002060000160009054906101000a900473ffffffffffffffffffffffffffffffffffffffff166002600084815260200190815260200160002060010160009054906101000a900473ffffffffffffffffffffffffffffffffffffffff16604051808373ffffffffffffffffffffffffffffffffffffffff1673ffffffffffffffffffffffffffffffffffffffff1681526020018273ffffffffffffffffffffffffffffffffffffffff1673ffffffffffffffffffffffffffffffffffffffff1681526020019250505060405180910390a150565b6040805190810160405280600381526020017f66616c00000000000000000000000000000000000000000000000000000000008152506002600084815260200190815260200160002060020190805190602001906200110392919062001bb5565b506040805190810160405280600281526020017f6e6d0000000000000000000000000000000000000000000000000000000000008152506002600084815260200190815260200160002060030190805190602001906200116592919062001bb5565b5060016002600084815260200190815260200160002060040160006101000a81548160ff0219169083151502179055506040805190810160405280600281526020017f6661000000000000000000000000000000000000000000000000000000000000815250600260008381526020019081526020016000206002019080519060200190620011f692919062001bb5565b506040805190810160405280600281526020017f66640000000000000000000000000000000000000000000000000000000000008152506002600083815260200190815260200160002060030190805190602001906200125892919062001bb5565b5060016002600083815260200190815260200160002060040160006101000a81548160ff0219169083151502179055507f95269f8247fe43fc63812ce8b3074fee98e64d563c328c17ed76d169553304be6002600084815260200190815260200160002060000160009054906101000a900473ffffffffffffffffffffffffffffffffffffffff166002600085815260200190815260200160002060010160009054906101000a900473ffffffffffffffffffffffffffffffffffffffff166002600085815260200190815260200160002060000160009054906101000a900473ffffffffffffffffffffffffffffffffffffffff166002600086815260200190815260200160002060010160009054906101000a900473ffffffffffffffffffffffffffffffffffffffff16604051808573ffffffffffffffffffffffffffffffffffffffff1673ffffffffffffffffffffffffffffffffffffffff1681526020018473ffffffffffffffffffffffffffffffffffffffff1673ffffffffffffffffffffffffffffffffffffffff1681526020018373ffffffffffffffffffffffffffffffffffffffff1673ffffffffffffffffffffffffffffffffffffffff1681526020018273ffffffffffffffffffffffffffffffffffffffff1673ffffffffffffffffffffffffffffffffffffffff16815260200194505050505060405180910390a15050565b60026020528060005260406000206000915090508060000160009054906101000a900473ffffffffffffffffffffffffffffffffffffffff16908060010160009054906101000a900473ffffffffffffffffffffffffffffffffffffffff1690806002018054600181600116156101000203166002900480601f0160208091040260200160405190810160405280929190818152602001828054600181600116156101000203166002900480156200155f5780601f1062001533576101008083540402835291602001916200155f565b820191906000526020600020905b8154815290600101906020018083116200154157829003601f168201915b505050505090806003018054600181600116156101000203166002900480601f016020809104026020016040519081016040528092919081815260200182805460018160011615610100020316600290048015620016015780601f10620015d55761010080835404028352916020019162001601565b820191906000526020600020905b815481529060010190602001808311620015e357829003601f168201915b5050505050908060040160009054906101000a900460ff16905085565b60045481565b60046000815480929190600101919050555060a0604051908101604052808673ffffffffffffffffffffffffffffffffffffffff1681526020018573ffffffffffffffffffffffffffffffffffffffff16815260200184815260200183815260200182151581525060026000600454815260200190815260200160002060008201518160000160006101000a81548173ffffffffffffffffffffffffffffffffffffffff021916908373ffffffffffffffffffffffffffffffffffffffff16021790555060208201518160010160006101000a81548173ffffffffffffffffffffffffffffffffffffffff021916908373ffffffffffffffffffffffffffffffffffffffff16021790555060408201518160020190805190602001906200174d92919062001c3c565b5060608201518160030190805190602001906200176c92919062001c3c565b5060808201518160040160006101000a81548160ff0219169083151502179055509050507f5717b7661433cef5bffca9f9059d0e57d590283d1d1c09d789ad409232d9fa128585604051808373ffffffffffffffffffffffffffffffffffffffff1673ffffffffffffffffffffffffffffffffffffffff1681526020018273ffffffffffffffffffffffffffffffffffffffff1673ffffffffffffffffffffffffffffffffffffffff1681526020019250505060405180910390a15050505050565b806002600084815260200190815260200160002060010160006101000a81548173ffffffffffffffffffffffffffffffffffffffff021916908373ffffffffffffffffffffffffffffffffffffffff1602179055507fa1724cdc6b9d23bb4271299763c66c4b65957ab2a93669516e4556835d3481996002600084815260200190815260200160002060000160009054906101000a900473ffffffffffffffffffffffffffffffffffffffff16826002600086815260200190815260200160002060010160009054906101000a900473ffffffffffffffffffffffffffffffffffffffff16604051808473ffffffffffffffffffffffffffffffffffffffff1673ffffffffffffffffffffffffffffffffffffffff1681526020018373ffffffffffffffffffffffffffffffffffffffff1673ffffffffffffffffffffffffffffffffffffffff1681526020018273ffffffffffffffffffffffffffffffffffffffff1673ffffffffffffffffffffffffffffffffffffffff168152602001935050505060405180910390a15050565b80600260008481526020019081526020016000206002019080519060200190620019ea92919062001bb5565b507f28fd100052557c591d4bcfc0fb7067949b6a45994ada5bf105b64abda3ae170382826040518083815260200180602001828103825283818151815260200191508051906020019080838360005b8381101562001a5657808201518184015260208101905062001a39565b50505050905090810190601f16801562001a845780820380516001836020036101000a031916815260200191505b50935050505060405180910390a15050565b60035481565b806002600084815260200190815260200160002060040160006101000a81548160ff0219169083151502179055507f040a5605a2101baaee10653d328d8033107e42933f5da2ebc7c3d86c320ace2c828260405180838152602001821515151581526020019250505060405180910390a15050565b6000600160003373ffffffffffffffffffffffffffffffffffffffff1673ffffffffffffffffffffffffffffffffffffffff16815260200190815260200160002054905090565b50805460018160011615610100020316600290046000825580601f1062001b80575062001ba1565b601f01602090049060005260206000209081019062001ba0919062001cc3565b5b50565b604051611a038062001cec83390190565b828054600181600116156101000203166002900490600052602060002090601f016020900481019282601f1062001bf857805160ff191683800117855562001c29565b8280016001018555821562001c29579182015b8281111562001c2857825182559160200191906001019062001c0b565b5b50905062001c38919062001cc3565b5090565b828054600181600116156101000203166002900490600052602060002090601f016020900481019282601f1062001c7f57805160ff191683800117855562001cb0565b8280016001018555821562001cb0579182015b8281111562001caf57825182559160200191906001019062001c92565b5b50905062001cbf919062001cc3565b5090565b62001ce891905b8082111562001ce457600081600090555060010162001cca565b5090565b9056fe608060405234801561001057600080fd5b5060405162001a0338038062001a03833981018060405260a081101561003557600080fd5b8101908080519060200190929190805164010000000081111561005757600080fd5b8281019050602081018481111561006d57600080fd5b815185600182028301116401000000008211171561008a57600080fd5b505092919060200180516401000000008111156100a657600080fd5b828101905060208101848111156100bc57600080fd5b81518560018202830111640100000000821117156100d957600080fd5b505092919060200180516401000000008111156100f557600080fd5b8281019050602081018481111561010b57600080fd5b815185600182028301116401000000008211171561012857600080fd5b5050929190602001805164010000000081111561014457600080fd5b8281019050602081018481111561015a57600080fd5b815185600182028301116401000000008211171561017757600080fd5b50509291905050506101876102c9565b808060200180602001806020018481038452600081526020016020018481038352600081526020016020018481038252600081526020016020019350505050604051809103906000f0801580156101e2573d6000803e3d6000fd5b50600560006101000a81548173ffffffffffffffffffffffffffffffffffffffff021916908373ffffffffffffffffffffffffffffffffffffffff160217905550846000806101000a81548173ffffffffffffffffffffffffffffffffffffffff021916908373ffffffffffffffffffffffffffffffffffffffff16021790555083600190805190602001906102799291906102da565b5082600290805190602001906102909291906102da565b5081600390805190602001906102a79291906102da565b5080600490805190602001906102be9291906102da565b50505050505061037f565b60405161101a80620009e983390190565b828054600181600116156101000203166002900490600052602060002090601f016020900481019282601f1061031b57805160ff1916838001178555610349565b82800160010185558215610349579182015b8281111561034857825182559160200191906001019061032d565b5b509050610356919061035a565b5090565b61037c91905b80821115610378576000816000905550600101610360565b5090565b90565b61065a806200038f6000396000f3fe608060405260043610610078576000357c0100000000000000000000000000000000000000000000000000000000900463ffffffff16806306fdde031461007d57806326b85ee11461010d5780634d4405a91461016457806368c41157146101f4578063e6fcc84b1461024b578063f514ce36146102db575b600080fd5b34801561008957600080fd5b5061009261036b565b6040518080602001828103825283818151815260200191508051906020019080838360005b838110156100d25780820151818401526020810190506100b7565b50505050905090810190601f1680156100ff5780820380516001836020036101000a031916815260200191505b509250505060405180910390f35b34801561011957600080fd5b50610122610409565b604051808273ffffffffffffffffffffffffffffffffffffffff1673ffffffffffffffffffffffffffffffffffffffff16815260200191505060405180910390f35b34801561017057600080fd5b5061017961042e565b6040518080602001828103825283818151815260200191508051906020019080838360005b838110156101b957808201518184015260208101905061019e565b50505050905090810190601f1680156101e65780820380516001836020036101000a031916815260200191505b509250505060405180910390f35b34801561020057600080fd5b506102096104cc565b604051808273ffffffffffffffffffffffffffffffffffffffff1673ffffffffffffffffffffffffffffffffffffffff16815260200191505060405180910390f35b34801561025757600080fd5b506102606104f2565b6040518080602001828103825283818151815260200191508051906020019080838360005b838110156102a0578082015181840152602081019050610285565b50505050905090810190601f1680156102cd5780820380516001836020036101000a031916815260200191505b509250505060405180910390f35b3480156102e757600080fd5b506102f0610590565b6040518080602001828103825283818151815260200191508051906020019080838360005b83811015610330578082015181840152602081019050610315565b50505050905090810190601f16801561035d5780820380516001836020036101000a031916815260200191505b509250505060405180910390f35b60018054600181600116156101000203166002900480601f0160208091040260200160405190810160405280929190818152602001828054600181600116156101000203166002900480156104015780601f106103d657610100808354040283529160200191610401565b820191906000526020600020905b8154815290600101906020018083116103e457829003601f168201915b505050505081565b6000809054906101000a900473ffffffffffffffffffffffffffffffffffffffff1681565b60048054600181600116156101000203166002900480601f0160208091040260200160405190810160405280929190818152602001828054600181600116156101000203166002900480156104c45780601f10610499576101008083540402835291602001916104c4565b820191906000526020600020905b8154815290600101906020018083116104a757829003601f168201915b505050505081565b600560009054906101000a900473ffffffffffffffffffffffffffffffffffffffff1681565b60038054600181600116156101000203166002900480601f0160208091040260200160405190810160405280929190818152602001828054600181600116156101000203166002900480156105885780601f1061055d57610100808354040283529160200191610588565b820191906000526020600020905b81548152906001019060200180831161056b57829003601f168201915b505050505081565b60028054600181600116156101000203166002900480601f0160208091040260200160405190810160405280929190818152602001828054600181600116156101000203166002900480156106265780601f106105fb57610100808354040283529160200191610626565b820191906000526020600020905b81548152906001019060200180831161060957829003601f168201915b50505050508156fea165627a7a7230582039508a8c73a09c61a1fcdcb5b59d6761cf60ebc164d0dfc40e6131c7eef276ab002960806040523480156200001157600080fd5b506040516200101a3803806200101a833981018060405260608110156200003757600080fd5b8101908080516401000000008111156200005057600080fd5b828101905060208101848111156200006757600080fd5b81518560018202830111640100000000821117156200008557600080fd5b50509291906020018051640100000000811115620000a257600080fd5b82810190506020810184811115620000b957600080fd5b8151856001820283011164010000000082111715620000d757600080fd5b50509291906020018051640100000000811115620000f457600080fd5b828101905060208101848111156200010b57600080fd5b81518560018202830111640100000000821117156200012957600080fd5b505092919050505082600090805190602001906200014992919062000185565b5081600190805190602001906200016292919062000185565b5080600290805190602001906200017b92919062000185565b5050505062000234565b828054600181600116156101000203166002900490600052602060002090601f016020900481019282601f10620001c857805160ff1916838001178555620001f9565b82800160010185558215620001f9579182015b82811115620001f8578251825591602001919060010190620001db565b5b5090506200020891906200020c565b5090565b6200023191905b808211156200022d57600081600090555060010162000213565b5090565b90565b610dd680620002446000396000f3fe608060405260043610610083576000357c0100000000000000000000000000000000000000000000000000000000900463ffffffff16806306fdde03146100885780631073a13714610118578063747f338014610143578063adcff184146101d3578063bcd6e87e14610372578063ec002d6a146105a8578063f629ad30146106c8575b600080fd5b34801561009457600080fd5b5061009d610758565b6040518080602001828103825283818151815260200191508051906020019080838360005b838110156100dd5780820151818401526020810190506100c2565b50505050905090810190601f16801561010a5780820380516001836020036101000a031916815260200191505b509250505060405180910390f35b34801561012457600080fd5b5061012d6107f6565b6040518082815260200191505060405180910390f35b34801561014f57600080fd5b506101586107fc565b6040518080602001828103825283818151815260200191508051906020019080838360005b8381101561019857808201518184015260208101905061017d565b50505050905090810190601f1680156101c55780820380516001836020036101000a031916815260200191505b509250505060405180910390f35b3480156101df57600080fd5b50610370600480360360808110156101f657600080fd5b810190808035906020019064010000000081111561021357600080fd5b82018360208201111561022557600080fd5b8035906020019184600183028401116401000000008311171561024757600080fd5b91908080601f016020809104026020016040519081016040528093929190818152602001838380828437600081840152601f19601f820116905080830192505050505050509192919290803590602001906401000000008111156102aa57600080fd5b8201836020820111156102bc57600080fd5b803590602001918460018302840111640100000000831117156102de57600080fd5b91908080601f016020809104026020016040519081016040528093929190818152602001838380828437600081840152601f19601f820116905080830192505050505050509192919290803573ffffffffffffffffffffffffffffffffffffffff169060200190929190803573ffffffffffffffffffffffffffffffffffffffff16906020019092919050505061089a565b005b34801561037e57600080fd5b506105a6600480360360a081101561039557600080fd5b81019080803590602001906401000000008111156103b257600080fd5b8201836020820111156103c457600080fd5b803590602001918460018302840111640100000000831117156103e657600080fd5b91908080601f016020809104026020016040519081016040528093929190818152602001838380828437600081840152601f19601f8201169050808301925050505050505091929192908035906020019064010000000081111561044957600080fd5b82018360208201111561045b57600080fd5b8035906020019184600183028401116401000000008311171561047d57600080fd5b91908080601f016020809104026020016040519081016040528093929190818152602001838380828437600081840152601f19601f820116905080830192505050505050509192919290803590602001906401000000008111156104e057600080fd5b8201836020820111156104f257600080fd5b8035906020019184600183028401116401000000008311171561051457600080fd5b91908080601f016020809104026020016040519081016040528093929190818152602001838380828437600081840152601f19601f820116905080830192505050505050509192919290803573ffffffffffffffffffffffffffffffffffffffff169060200190929190803573ffffffffffffffffffffffffffffffffffffffff1690602001909291905050506109b0565b005b3480156105b457600080fd5b506105e1600480360360208110156105cb57600080fd5b8101908080359060200190929190505050610a93565b604051808060200180602001838103835285818151815260200191508051906020019080838360005b8381101561062557808201518184015260208101905061060a565b50505050905090810190601f1680156106525780820380516001836020036101000a031916815260200191505b50838103825284818151815260200191508051906020019080838360005b8381101561068b578082015181840152602081019050610670565b50505050905090810190601f1680156106b85780820380516001836020036101000a031916815260200191505b5094505050505060405180910390f35b3480156106d457600080fd5b506106dd610be7565b6040518080602001828103825283818151815260200191508051906020019080838360005b8381101561071d578082015181840152602081019050610702565b50505050905090810190601f16801561074a5780820380516001836020036101000a031916815260200191505b509250505060405180910390f35b60008054600181600116156101000203166002900480601f0160208091040260200160405190810160405280929190818152602001828054600181600116156101000203166002900480156107ee5780601f106107c3576101008083540402835291602001916107ee565b820191906000526020600020905b8154815290600101906020018083116107d157829003601f168201915b505050505081565b60045481565b60028054600181600116156101000203166002900480601f0160208091040260200160405190810160405280929190818152602001828054600181600116156101000203166002900480156108925780601f1061086757610100808354040283529160200191610892565b820191906000526020600020905b81548152906001019060200180831161087557829003601f168201915b505050505081565b60046000815480929190600101919050555060408051908101604052808581526020018481525060036000600454815260200190815260200160002060008201518160000190805190602001906108f2929190610c85565b50602082015181600101908051906020019061090f929190610c85565b509050507f1a600d72ea565d8497f59d3b9158d387d68ffcf98ca54eacf4d1c01df71fec788282604051808373ffffffffffffffffffffffffffffffffffffffff1673ffffffffffffffffffffffffffffffffffffffff1681526020018273ffffffffffffffffffffffffffffffffffffffff1673ffffffffffffffffffffffffffffffffffffffff1681526020019250505060405180910390a150505050565b84600090805190602001906109c6929190610d05565b5083600190805190602001906109dd929190610d05565b5082600290805190602001906109f4929190610d05565b507f84e0f927090bbbd6f6004647d35d177dd170934c4b36040b639c01e34bf3863a8282604051808373ffffffffffffffffffffffffffffffffffffffff1673ffffffffffffffffffffffffffffffffffffffff1681526020018273ffffffffffffffffffffffffffffffffffffffff1673ffffffffffffffffffffffffffffffffffffffff1681526020019250505060405180910390a15050505050565b6003602052806000526040600020600091509050806000018054600181600116156101000203166002900480601f016020809104026020016040519081016040528092919081815260200182805460018160011615610100020316600290048015610b3f5780601f10610b1457610100808354040283529160200191610b3f565b820191906000526020600020905b815481529060010190602001808311610b2257829003601f168201915b505050505090806001018054600181600116156101000203166002900480601f016020809104026020016040519081016040528092919081815260200182805460018160011615610100020316600290048015610bdd5780601f10610bb257610100808354040283529160200191610bdd565b820191906000526020600020905b815481529060010190602001808311610bc057829003601f168201915b5050505050905082565b60018054600181600116156101000203166002900480601f016020809104026020016040519081016040528092919081815260200182805460018160011615610100020316600290048015610c7d5780601f10610c5257610100808354040283529160200191610c7d565b820191906000526020600020905b815481529060010190602001808311610c6057829003601f168201915b505050505081565b828054600181600116156101000203166002900490600052602060002090601f016020900481019282601f10610cc657805160ff1916838001178555610cf4565b82800160010185558215610cf4579182015b82811115610cf3578251825591602001919060010190610cd8565b5b509050610d019190610d85565b5090565b828054600181600116156101000203166002900490600052602060002090601f016020900481019282601f10610d4657805160ff1916838001178555610d74565b82800160010185558215610d74579182015b82811115610d73578251825591602001919060010190610d58565b5b509050610d819190610d85565b5090565b610da791905b80821115610da3576000816000905550600101610d8b565b5090565b9056fea165627a7a72305820a0212c203dfedbd8a45c3225ee1c1554d4bb04935ebde040fbdf2fc8d924b8050029a165627a7a72305820bee4aa8d77987fded52d94aa6aaff3b1493a84b5681bfb9c1a9a8f9b8a71a36b0029",
  "source": "pragma solidity ^0.5.0;\r\n\r\nimport './Agent.sol';\r\n\r\ncontract Platform {\r\n\r\n\r\n\r\n    struct Relationship {\r\n        address patient;\r\n        address other;\r\n        string access;\r\n        string rType;\r\n        bool active;\r\n    }\r\n\r\n    mapping (uint => Agent)  public agents;\r\n    mapping (address => uint) public registeredAgents;\r\n    mapping (uint => Relationship) public relationships;\r\n\r\n    uint public agentsCount;\r\n    uint public relationshipsCount;\r\n\r\n    constructor () public {\r\n    }\r\n\r\n    event registerEvent (\r\n        address agentAddress\r\n    );\r\n\r\n    event accessEvent (\r\n        uint i,\r\n        string access\r\n    );\r\n\r\n    event relationshipEvent (\r\n        address ow,\r\n        address ot\r\n    );\r\n\r\n    event activeEvent (\r\n        uint i,\r\n        bool active\r\n    );\r\n\r\n    event otherEvent (\r\n        address ow,\r\n        address ot1,\r\n        address ot2\r\n    );\r\n\r\n    event bothEvent (\r\n        address ow1,\r\n        address ot1,\r\n        address ow2,\r\n        address ot2\r\n    );\r\n\r\n    event oneEvent (\r\n        address ow,\r\n        address ot\r\n    );\r\n\r\n\r\n\r\n    function registerAgent (string memory name,string memory uid, string memory did, string memory tipo) public {\r\n        agentsCount++;\r\n        agents[agentsCount] = new Agent({ma:msg.sender,nm:name, ui:uid,di:did, tp:tipo});\r\n        registeredAgents[msg.sender] = agentsCount;      \r\n        emit registerEvent(msg.sender);\r\n    }\r\n\r\n    function getAgentIndex () public view returns (uint){\r\n        return registeredAgents[msg.sender];\r\n    }\r\n\r\n    function addRelationship (address ow, address ot,string memory acc,string memory tp,bool act) public {\r\n        relationshipsCount++;\r\n        relationships[relationshipsCount] = Relationship (ow,ot,acc,tp,act);\r\n        emit relationshipEvent(ow,ot);\r\n    }\r\n\r\n    function deleteRelationship (uint i) public {\r\n       delete relationships[i];\r\n    }\r\n\r\n    function setAccess (uint i,string memory ac) public {\r\n        relationships[i].access = ac;\r\n        emit accessEvent(i,ac);\r\n    }\r\n\r\n    function setActive (uint i,bool ac) public {\r\n        relationships[i].active = ac;\r\n        emit activeEvent(i,ac);\r\n    }\r\n\r\n    function setOther (uint i,address ad) public {\r\n        relationships[i].other = ad; \r\n        emit otherEvent(relationships[i].patient,ad,relationships[i].other);\r\n    }\r\n\r\n    function setBoth(uint i,uint i2) public{\r\n        relationships[i].access = \"fal\";\r\n        relationships[i].rType = \"nm\";\r\n        relationships[i].active = true;\r\n        relationships[i2].access = \"fa\";\r\n        relationships[i2].rType = \"fd\";\r\n        relationships[i2].active = true;\r\n        emit bothEvent(relationships[i].patient,relationships[i].other,relationships[i2].patient,relationships[i2].other);\r\n    }\r\n\r\n    function setOne(uint i) public{\r\n        relationships[i].access = \"fa\";\r\n        relationships[i].rType = \"fd\";\r\n        relationships[i].active = true;\r\n        emit oneEvent(relationships[i].patient,relationships[i].other);\r\n\r\n    }\r\n\r\n}\r\n",
  "sourcePath": "C:/Users/Giordy/Desktop/PF/contracts/Platform.sol",
  "compiler": {
    "name": "solc",
    "version": "0.5.0+commit.1d4f565a.Emscripten.clang"
  },
  "schemaVersion": "3.0.5",
  "updatedAt": "2019-05-10T20:55:05.205Z",
  "devdoc": {
    "methods": {}
  },
  "userdoc": {
    "methods": {}
  }
}